:020000040800F2
:1000000020040020E1000008750100086F010008CD
:1000100000000000000000000000000000000000E0
:10002000000000000000000000000000790100084E
:10003000000000000000000077010008C90100086E
:100040000D0100080D0100080D0100080D01000858
:100050000D010008550100080D0100080D01000800
:10006000000000000D0100080D0100080D0100084E
:100070000D0100080D0100080D010008000000003E
:100080000D0100080D010008000000000D0100082E
:100090000D0100080D0100080D0100080D01000808
:1000A0000D0100080D0100080D0100080D010008F8
:1000B0000D0100080000000000000000000000002A
:1000C0000D010008000000000D01000803488546EE
:1000D00000F028F8004800475107000820040020DD
:1000E0000B4802680B480240120C92020A4940F287
:1000F000000001C1121F002AFBD1084880470848B0
:100100000047FEE7FEE7FEE7FEE7FEE7FEE700004A
:10011000E0F7FF1F0000FFFF00000020D1010008F2
:10012000CD0000081CB5094800900948019005461B
:100130000126009C05E0E36807CC33430C3C98475C
:100140001034AC42F7D3FFF7C5FF0000480B00089E
:10015000680B000880B5012000F024FA30B1FFE7F9
:10016000012000F017FA00F089FCFFE780BD72B6AD
:10017000FFE7FEE7704770477047000080B584B026
:1001800002900298401E000E18B1FFE70120039074
:1001900011E00298401E0949086000200190C04308
:1001A000032100F007F9019805490860054A072175
:1001B00011600390FFE7039804B080BD14E000E0F5
:1001C00018E000E010E000E080B500F057F980BDD5
:1001D00080B586B042490868012210430860FFE7F5
:1001E0003F4800688007002801D4FFE7F8E73D4852
:1001F00000680C210840082835D1FFE7FFE739499E
:10020000086804900498F022904304900498802297
:10021000104304900498086000200590FFE70598BB
:100220007F2805D8FFE7FFE70598401C0590F6E713
:100230002C49086804900498F02290430490049894
:100240009022104304900498086000200590FFE776
:1002500005987F2805D8FFE7FFE70598401C059023
:10026000F6E7FFE7FFE71F49019108680322904383
:100270000860642000F0E0F80199194A10681A4BF0
:10028000184010600868194A104008600868184A49
:1002900010400860174908680F229043086016490B
:1002A000086840F203129043086008680122029235
:1002B0001304984308600868D307984308600F49FF
:1002C0000868904308600E4900200390086000F021
:1002D000B7FB02980399C00600F066FA06B080BD2D
:1002E0000010024004100240FFFFF2FE0C00FF0865
:1002F000FFFFC2772C100240301002403410024041
:100300000810024081B00146684601700021405645
:1003100000280DD4FFE70021684641561F200A46F9
:1003200002400120904049098900024A8850FFE7B5
:1003300001B0704700E100E070B582B0024601A84C
:100340000270009100214056002816D4FFE70024D7
:1003500001A908570322D3431840364A8058095749
:100360008C07E50EFF24AC40A043009CA401E4B23E
:10037000AC402043194088501AE001A908780F24A6
:10038000204008380322D3431840294A80580025CA
:1003900049578D07EE0EFF25B540A843009DAD01DE
:1003A000EDB2B54028432140083919408850FFE795
:1003B00002B070BD70B582B0024601A80270009113
:1003C00000214056002816D4FFE7002401A9085751
:1003D0000322D3431840174A805809578C07E50E6B
:1003E000FF24AC40A043009CA401E4B2AC402043F5
:1003F000194088501AE001A908780F2420400838D5
:100400000322D34318400A4A8058002549578D07D4
:10041000EE0EFF25B540A843009DAD01EDB2B540FD
:1004200028432140083919408850FFE702B070BDC9
:100430001CED00E000E400E082B00190002000909C
:10044000FFE70098019A0A215143884205D2FFE74D
:10045000FFE70098401C0090F3E702B070470000EF
:1004600081B0009000980C490860FFE70A480068D6
:1004700008B1FFE7FAE701B07047C04606480068D8
:1004800028B1FFE704490868401E0860FFE70349F8
:100490000868401C08607047080000200C0000201D
:1004A00085B0049003A8017002A90A70049B384A21
:1004B000116899431160049B2D4A1168994311609A
:1004C000049B2C4A116899431160049B2A4A1168C5
:1004D000994311600078019020B1FFE7019801284D
:1004E00006D00BE0049A2A4908681043086006E029
:1004F000049A1F4908681043086000E0FFE702A85B
:100500000078009003282FD800998A0001A0801855
:100510008746C04600F006B800F00FB800F018B8E3
:1005200000F021B8049A1349086810430860049A3F
:10053000114908689043086017E0049A0D4908685B
:1005400090430860049A0C490868104308600CE066
:10055000049A0849086810430860049A0649086824
:100560001043086001E0FFE7FFE705B07047C046B1
:1005700004040140080401400C04014081B00090D3
:10058000009A034908681043086001B07047C046EC
:100590000004014081B0009000980C49086001B04F
:1005A0007047C04682B00190694600200870074835
:1005B00000680199084204D0FFE7694601200870ED
:1005C000FFE76846007802B07047C0461404014057
:1005D00080B584B08B4800F01FF90920C006029056
:1005E00001210022019240F20023039300F024F83D
:1005F000019A0298039B114600F065F8029803994E
:1006000000F00AF804B080BD80B50920C00640F2B1
:10061000002100F009F880BD82B00190009100989F
:100620000199886202B0704782B0019000910098F1
:100630000199886102B0704787B0069005910492D5
:1006400003930698006801900698C068009002A97C
:1006500000200880FFE702A800880F282BD8FFE7BA
:1006600002A801880398C840C007F0B1FFE702A8BC
:1006700001884900032213468B4001999943019157
:10068000059B018849008B4001991943019101881C
:1006900049008A40009991430091049900884000E4
:1006A0008140009808430090FFE7FFE70298401C54
:1006B00002A90880CFE7019806990860009806997A
:1006C000C86007B0704710B586B0059004A80170E7
:1006D000039202930078012806D1FFE7029A059958
:1006E00048681043486005E0029A059948689043BD
:1006F0004860FFE705988068009001A90020088005
:10070000FFE701A800880F281DD8FFE701A801888E
:100710000298C840C00780B1FFE701A801884900DE
:1007200003228A4000999143009103990088400078
:100730008140009808430090FFE7FFE70198401CC4
:1007400001A90880DDE700980599886006B010BD12
:1007500080B582B00020019000F076F9FFF738FFF5
:1007600000F034F800F0B8F9FFF74EFF00F04CF855
:10077000FFE70120FFF774FEFBE780B584B00A466F
:10078000014603A80190017002A90A70002200929C
:1007900080560978FFF7D0FD009901984056FFF781
:1007A000B1FD04B080BD000082B0019000910198BD
:1007B0000099044A1140084303490860BFF34F8F72
:1007C00002B0704780FFFF1F08ED00E080B584B0E5
:1007D0000C4800F021F80920C006029001210022F7
:1007E000019240F200130393FFF726FF019A02984B
:1007F000039B1146FFF767FF02980399FFF70CFF71
:1008000004B080BD1105000080B50920C00640F28B
:100810000011FFF709FF80BD81B0014668460180E5
:1008200000881F220146114001238B4081097F4A25
:1008300088581843885001B07047C04685B00A46B2
:1008400004A9087003A8027002789207130F0F2200
:100850009A40D2430292097802789207120F91408F
:100860000191007880080090032835D800998A000B
:1008700001A080188746C04600F006B800F00EB808
:1008800000F016B800F01EB8029A18490868104027
:100890000860019A0868104308601EE0029A124935
:1008A000086810400860019A08681043086014E066
:1008B000029A0C49086810400860019A08681043C1
:1008C00008600AE0029A0649086810400860019A28
:1008D00008681043086000E0FFE705B07047C046B5
:1008E00014000140100001400C00014008000140CC
:1008F00087B00020069005904C49086801221043FB
:100900000860FFE70698401C0690484800680221EE
:1009100008400590FFE705990020019041B9FFE7E5
:10092000069840F20051401A411E88410190FFE7AD
:100930000198C0070028E5D1FFE73C480068800720
:10094000002802D4FFE7FFE7FEE7394908680222E2
:1009500010430522904308603649009108689022B0
:100960001043086008680860086808600868324A30
:10097000104008600868314A104308602B49086835
:100980000122120610430860FFE728480068800132
:10099000002801D4FFE7F8E7264908680490049886
:1009A0000322904304900498022210430490049878
:1009B0000860FFE71F4800680C210840082801D0A4
:1009C000FFE7F7E7FFE700200390FFE703987F28A2
:1009D00005D8FFE7FFE70398401C0390F6E71549A9
:1009E000086802900298F0229043029002988022B8
:1009F000104302900298086000200390FFE70398DC
:100A00007F2805D8FFE7FFE70398401C0390F6E72F
:100A10000849086802900298F022904302900298D8
:100A2000029002980860FFE707B07047001002408C
:100A30000020024004100240FFFFC2F7000004083B
:100A400080B5FFF755FF80BD80B50848006840F2CB
:100A5000E831B0FBF1F0FFF791FB10B1FFE7FFE7E2
:100A6000FEE70021C843FFF7A5FC80BD0000002081
:100A7000014800687047C0460C00002080B582B075
:100A8000FFF7F6FF01901048006890B1FFE701986A
:100A90000D490968401A00900098042801D8FFE722
:100AA0000FE0009809490860009840000849086074
:100AB000FFE701980449086006490868401C08607F
:100AC000FFE702B080BDC0461C00002018000020D7
:100AD000140000201000002080B582B040F20060B9
:100AE000FFF79AFE0E48FFF797FE012001900021C4
:100AF0000091FFF7A3FE009A019B0A481146FFF7F9
:100B00009BFD009901980222FFF7CAFC0198FFF7AC
:100B100035FD01990520FFF730FE02B080BDC046CB
:100B2000120500000004004802E008C8121F08C1B6
:100B3000002AFAD170477047002001E001C1121F5E
:100B4000002AFBD170470000680B0008000000205D
:100B500004000000280B00086C0B000808000020AF
:0C0B600018040000380B000800A24A0432
:04000005080000E10E
:00000001FF
