:020000040800F2
:1000000080040020E10000088907000809070008B3
:1000100000000000000000000000000000000000E0
:10002000000000000000000000000000D9070008E8
:1000300000000000000000008B07000829080008ED
:100040000D0100080D0100080D0100080D01000858
:100050000D010008A50600080D0100080D010008AB
:10006000000000000D0100080D0100080D0100084E
:100070000D0100080D0100080D010008000000003E
:100080000D0100080D010008000000000D0100082E
:100090000D0100080D0100080D0100080D01000808
:1000A0000D0100080D0100080D0100080D010008F8
:1000B000D50900080000000000000000000000005A
:1000C0000D010008000000000D01000803488546EE
:1000D00000F01EFA00480047330E0008800400209C
:1000E0000B4802680B480240120C92020A4940F287
:1000F000000001C1121F002AFBD1084880470848B0
:100100000047FEE7FEE7FEE7FEE7FEE7FEE700004A
:10011000E0F7FF1F0000FFFF00000020310800088B
:10012000CD000008F0B51FB40646002082B0054699
:100130004024019100901BE0019922460F46304671
:1001400000F02DFA049A059B801A994110D31046AD
:100150001946224600F013FA361A8F4101972246BB
:1001600001200021009F00F00AFA38184D4100904C
:100170002046641E0028DFDC019B00982946324699
:1001800007B0F0BDF0B507460846584087B0C00F2D
:10019000049048000E46590040084908BC1A88419E
:1001A00005D2384631461E4617460B4602465800D1
:1001B000400810434CD0300D039040055900400DCD
:1001C000490D0590401A0290402872DA1803012167
:1001D000000B09050843019004980092002805D0FF
:1001E00001995242002088410092019002984021DA
:1001F0000A1A0199009800F0C2F905460C466B46B0
:1002000007CB00F0DDF9C0197141039A0E0D0023F0
:10021000D71756401A467A40164344D0049A002A0B
:100220002DD0029A012A039A15DC1205C01A9141B9
:1002300001263605001C7141D20F059ED20700939E
:10024000019202962A46234600F0DAF907B0F0BD83
:1002500038463146FAE71605224A0F46B218C01A48
:10026000B74101210905001C4F4100187F4111468B
:1002700018187941E20F10436D19644113E0E20749
:100280006D0815436408C2071443039A012612053A
:10029000C01A91413605001C7141CE074008304319
:1002A0004908C01851412A46234600F09CF9CDE781
:1002B000FFE7049801224000C117121A00238B4166
:1002C00004983146C417381AA141EEE730B401242E
:1002D000E407634030BC55E730B40124E4076140D3
:1002E00030BC4FE70000E0FFF0B51FB488B00B99B9
:1002F0000998002448400999C00F4900490809910C
:10030000C0070B990090490049080B91099908987A
:10031000A64608431CD00B990A98084318D00998A0
:1003200001244000420D4800410D099824050003B6
:10033000000B204309900B980003000B20430B9007
:1003400050181C494018002201901446104605E040
:10035000002001460DB0F0BD032801DA034600E09D
:1003600003239C46C11A0AAE0AE05F0008ADED5BAC
:100370004F00F75B7D430027AA187C41491C5B1E98
:100380006145F2DD410004AB5A522104120C0A43CC
:10039000240C401C0828DFDB01980290009970466D
:1003A00001910090059B049A0799069800F028F99E
:1003B000D0E700000DFCFFFFF0B50C465C4085B0B7
:1003C000E40FE40703944C000026640859009446A7
:1003D000490802460296224321D062460A431ED0B3
:1003E0006200570D4A000E032303550D01240246F7
:1003F0002C492405781B1B0B360B4018234326433E
:10040000614600901C46501AB44103D30098401C2A
:10041000009002E0921800985B41002803DA002067
:10042000014605B0F0BD00200121090507468646BA
:1004300011E064461D46141BB54106D36546521BA8
:10044000B341744607430C43A646CD07400849080C
:10045000284392185B4105460D43EAD110461843E4
:1004600013D06046194650407140084306D060469C
:10047000101AB34106D20122002306E00022012314
:10048000DB0702E00122D2435310009874460105B5
:10049000381C6141029C039D0019694100F0A3F8DA
:1004A000BFE70000FD0300004A0009030123090B18
:1004B0001B0519430A4B10B5520D9A4202DA00206F
:1004C000014610BD064B34339A4203DC9A1A00F001
:1004D00066F810BD034BD21800F051F810BD0000B3
:1004E000FF030000CDFBFFFF10B5002904DB012452
:1004F000E40740428C412146002B04DB1C460123CB
:10050000DB075242A341994200D1904210BD000046
:100510001CB5094800900948019005460126009C39
:1005200005E0E36807CC33430C3C98471034AC42F9
:10053000F7D3FFF7CFFD0000EC1900080C1A0008F4
:1005400070B50446002903D000202022012310E0CA
:10055000002801D00020C043C046C0460DE025461B
:10056000D5408D4205D30D469540641B1D469540F0
:1005700040191546521E002DF1DC214670BD10B504
:10058000202A04DB0146203A9140002010BD914012
:1005900020239C1A0346E3401943904010BD10B538
:1005A000202A04DB0846203AD040002110BD0B462B
:1005B000D340D0402024A21A91400843194610BDD0
:1005C00010B5202A06DBCB170846203A1041C11788
:1005D0000B4306E00B461341D0402024A21A914061
:1005E0000843194610BD10B5002B08DA0024401C42
:1005F000614192185B411A4301D14008400010BD8F
:10060000F0B51FB482B005460C0003D0084600F0D8
:1006100069FD02E000F066FD2030024600902146B0
:100620002846FFF7ACFF049B059A04460F46184383
:100630001143084314D0184610431BD000984021A2
:100640000A1A18460599FFF7AAFF05460E46009AB2
:1006500005990498FFF793FF084305D0012004E0B3
:100660002046394607B0F0BD0020C11705430E43B0
:100670002C43374300990E986305401A7905E40A24
:1006800000220C43FD0A0A3002D500200146E9E7AA
:100690000105101969410C9C0D9D00196941FFF776
:1006A000A2FFDFE780B5012000F006FB30B1FFE7D5
:1006B000012000F0F9FA00F071FAFFE780BD0000B8
:1006C00080B584B03F4800F0DBFB0920C0060290F3
:1006D00001210022019240F20023039300F01DFB50
:1006E000019A0298039B114600F05EFB0298039961
:1006F00000F003FB04B080BD80B50920C00640F2C5
:10070000002100F002FB80BD85B00020019072B690
:10071000EFF314800290029919480160EFF3088109
:10072000039103994160EFF3098104910499816079
:1007300000788007002804D5FFE711488068009002
:1007400003E00F4840680090FFE70098019001988F
:10075000400F68B1FFE701980A49884208D8FFE7CF
:10076000019880690649C86001984069086104E001
:1007700003490020C8600861FFE7FFE7FEE7C046C5
:1007800008000020FFFF00207047704780B584B04C
:100790000C4800F075FB0920C006029001210022E0
:1007A000019240F20013039300F0B7FA019A029805
:1007B000039B114600F0F8FA0298039900F09DFAA5
:1007C00004B080BD1105000080B50920C00640F2CC
:1007D000001100F09AFA80BD7047000080B584B027
:1007E00002900298401E000E18B1FFE7012003900E
:1007F00011E00298401E0949086000200190C043A2
:10080000032100F0FBF9019805490860054A07211A
:1008100011600390FFE7039804B080BD14E000E08E
:1008200018E000E010E000E080B500F0AFF880BD17
:1008300080B586B042490868012210430860FFE78E
:100840003F4800688007002801D4FFE7F8E73D48EB
:1008500000680C210840082835D1FFE7FFE7394937
:10086000086804900498F022904304900498802231
:10087000104304900498086000200590FFE7059855
:100880007F2805D8FFE7FFE70598401C0590F6E7AD
:100890002C49086804900498F0229043049004982E
:1008A0009022104304900498086000200590FFE710
:1008B00005987F2805D8FFE7FFE70598401C0590BD
:1008C000F6E7FFE7FFE71F4901910868032290431D
:1008D0000860642000F0D4F90199194A10681A4B95
:1008E000184010600868194A104008600868184AE3
:1008F00010400860174908680F22904308601649A5
:10090000086840F2031290430860086801220292CE
:100910001304984308600868D307984308600F4998
:100920000868904308600E4900200390086000F0BA
:1009300061FB02980399C00600F090FA06B080BDF2
:100940000010024004100240FFFFF2FE0C00FF08FE
:10095000FFFFC2772C1002403010024034100240DA
:100960000810024080B50848006840F2E831B0FB4A
:10097000F1F0FFF733FF10B1FFE7FFE7FEE70021DB
:10098000C84300F03BF980BD040000200D4800681A
:1009900028B1FFE70B490868401E0860FFE70C49D3
:1009A0000868401C0860704781B0009000980549B5
:1009B0000860FFE70348006808B1FFE7FAE701B005
:1009C0007047C0461C000020014800687047C046C0
:1009D0006C00002080B500F02DF880BD80B594B08B
:1009E00003A902910020088004A8402100F056F8D5
:1009F000014602980180008808B9FFE714E003A8C7
:100A00000090018804A8019000F098F800980188EF
:100A1000064800F057FB00990198098800F08EF80D
:100A2000034800F04FFBFFE714B080BDDF1900085A
:100A3000DC19000880B582B001A900200870694661
:100A400008805448134900F00BFB012820D1FFE730
:100A5000504800F0D3FA01A908702B480088411CC7
:100A60003F20014068460180008826490988884265
:100A700008D0FFE7019824490B88244AD0540098F5
:100A8000088004E004490868401C0860FFE7FFE7AD
:100A900002B080BD050005076400002010B584B0D9
:100AA000039002A8018001A900200880FFE701A8A7
:100AB000018802A8028800209142009009DAFFE72D
:100AC0001048008810490988401A411E884100904A
:100AD000FFE70098C00788B1FFE70A4A11880B4872
:100AE000405C039B01A90C8818551088401C3F23CB
:100AF000184010800198401C0880D8E701A80088A1
:100B000004B010BD6800002060000020200000201C
:100B100080B582B001A90870FFE71E48064900F0C1
:100B200081FA08B9FFE7F8E701A80178194800F051
:100B30006DFA02B080BDC0460707000080B584B0E2
:100B4000039002A8018001A9002008800880FFE727
:100B500001A8008802A9098888420CDAFFE70398F7
:100B600001A90988405CFFF7D3FFFFE70198401C0B
:100B700001A90880ECE700F003F804B080BD000094
:100B800080B5FFE70348044900F04CFA08B9FFE7D5
:100B9000F8E780BD004400400607000080B582B041
:100BA000002001900090FFF70FFF01900F480068B0
:100BB00090B1FFE701980D490968401A009000982C
:100BC000042801D8FFE70FE0009809490860009861
:100BD000400008490860FFE7019804490860064999
:100BE0000868401C0860FFE702B080BD7C00002060
:100BF00078000020740000207000002070B582B0E2
:100C0000024601A80270009100214056002816D427
:100C1000FFE7002401A908570322D3431840174ACD
:100C2000805809578C07E50EFF24AC40A043009C78
:100C3000A401E4B2AC402043194088501AE001A955
:100C400008780F24204008380322D34318400A4A6A
:100C50008058002549578D07EE0EFF25B540A84363
:100C6000009DAD01EDB2B54028432140083919403F
:100C70008850FFE702B070BD1CED00E000E400E02A
:100C800082B0019000200090FFE70098019A0A21AD
:100C90005143884205D2FFE7FFE70098401C0090CF
:100CA000F3E702B07047000081B0009000980C4953
:100CB000086001B07047C04682B0019069460020CC
:100CC0000870074800680199084204D0FFE76946A8
:100CD00001200870FFE76846007802B07047C04600
:100CE0001404014080B582B00190009101A8007801
:100CF000FFF70EFF019802B080BD82B00190009115
:100D000000980199886202B0704782B0019000910A
:100D100000980199886102B0704787B006900591EC
:100D2000049203930698006801900698C0680090AA
:100D300002A900200880FFE702A800880F282BD80E
:100D4000FFE702A801880398C840C007F0B1FFE799
:100D500002A801884900032213468B400199994358
:100D60000191059B018849008B400199194301912C
:100D7000018849008A4000999143009104990088B4
:100D800040008140009808430090FFE7FFE7029889
:100D9000401C02A90880CFE70198069908600098D6
:100DA0000699C86007B0704710B586B0059004A8D2
:100DB0000170039202930078012806D1FFE7029A9E
:100DC000059948681043486005E0029A059948680B
:100DD00090434860FFE705988068009001A90020D3
:100DE0000880FFE701A800880F281DD8FFE701A8A9
:100DF00001880298C840C00780B1FFE701A80188B8
:100E0000490003228A400099914300910399008888
:100E100040008140009808430090FFE7FFE70198F9
:100E2000401C01A90880DDE700980599886006B09C
:100E300010BD80B582B000200190FFF793FDFFF751
:100E40003FFCFFF7A3FCFFF757FCFFF7BDFCFFE7F4
:100E5000FFF7C4FD0120FFF7A7FDF9E782B001907D
:100E6000009101980099044A114008430349086021
:100E7000BFF34F8F02B0704780FFFF1F08ED00E007
:100E800081B001466846018000881F22014611405A
:100E900001238B408109524A88581843885001B079
:100EA0007047C04687B00020069005904C490868FE
:100EB000012210430860FFE70698401C069048484E
:100EC0000068022108400590FFE705990020019085
:100ED00041B9FFE7069840F20051401A411E88418F
:100EE0000190FFE70198C0070028E5D1FFE73C48E3
:100EF00000688007002802D4FFE7FFE7FEE73949D2
:100F00000868022210430522904308603649009188
:100F10000868902210430860086808600868086044
:100F20000868324A104008600868314A1043086077
:100F30002B4908680122120610430860FFE7284881
:100F400000688001002801D4FFE7F8E72649086817
:100F500004900498032290430490049802221043C2
:100F6000049004980860FFE71F4800680C210840BF
:100F7000082801D0FFE7F7E7FFE700200390FFE72D
:100F800003987F2805D8FFE7FFE70398401C0390EC
:100F9000F6E71549086802900298F0229043029003
:100FA000029880221043029002980860002003906B
:100FB000FFE703987F2805D8FFE7FFE70398401C69
:100FC0000390F6E70849086802900298F0229043DF
:100FD00002900298029002980860FFE707B07047FD
:100FE000001002400020024004100240FFFFC2F740
:100FF0000000040880B5FFF755FF80BD81B0009068
:101000000098406A0649084001B0704782B00190DC
:1010100000910098024908400199886202B0704727
:10102000FF01000084B0009101460098039102A9DD
:10103000088003980A889209805809881F22114065
:10104000C840C00720B1FFE701A90120087003E0F4
:1010500001A900200870FFE701A8007804B07047DC
:1010600010B585B00490039100200290019004987F
:1010700003A9098889094058039C1F231C400121AA
:101080000A46A240104002900498039A920D80589C
:10109000039A1B041A40120C9140084001900198D9
:1010A00038B1FFE7029820B1FFE7694601200870D8
:1010B00003E0694600200870FFE76846007805B045
:1010C00010BD00000FB410B503A9044B044A0298E8
:1010D00000F0E8F810BC08BC04B01847E50C0008A4
:1010E000000000202021020C01D010211046020A2D
:1010F00001D010460839020901D01046091F8208A4
:1011000001D01046891E420801D0881E7047081A77
:10111000704702E008C8121F08C1002AFAD17047C0
:101120007047002001E001C1121F002AFBD1704767
:10113000F0B51FB486B00998089A030D0021024348
:1011400014D05148514A18185043051411980128D9
:1011500010981AD0281A401C00264D4F4D49009671
:1011600001910490002812DA444211E01198012400
:1011700049A3012801D11098C1430698119A8460AF
:101180000360C26041600BB0F0BD4042E4E704463A
:10119000210500203F4A001C51410391029012E0BA
:1011A000E00707D032463B4601990098FFF79CF8CC
:1011B0000191009032463B4610461946FFF794F8DD
:1011C00006460F466410002CEAD10498039B0028C1
:1011D000029A0999089806DAFFF786F8019B009AA7
:1011E000FFF782F805E0FFF7E7F8019B009AFFF7A9
:1011F000E3F804460E460022284BFFF775F903D8A2
:101200000020C043014607E00022254B204631461E
:10121000FEF7B8FFFFF748F9102409E0002C0ADBBD
:101220000A220023FEF77EFF079B30321A55641E08
:1012300002460A43F2D11122641C079B121B1C199F
:10124000119B012B03D0012308430ED10AE0084370
:1012500004D0112010900020119077E71098151AF3
:101260006D1E0BE01098824202DD00236D1C03E02E
:10127000824201DA00236D1E002BEED006981199F0
:101280008260C16030C07EE701FCFFFF104D0000AE
:10129000000014400000F03F300000000000F04368
:1012A0000000E03FFFB597B00646002518E225286C
:1012B00077D100242746FD49049400E00443761CBE
:1012C00032780120203A90400842F7D130782A281D
:1012D0000ED00222307801463039092916D80499F7
:1012E0000A235943303940181443761C0490F1E71F
:1012F000189802C804911890002904DA01204003CC
:1013000004434842049002200443761C30782E287F
:1013100014D1042004437078761C2A2809D1189827
:10132000761C80C8189009E00A214F43303FC71946
:10133000761C3078014630390929F5D930786C2887
:1013400010D006DC4C281AD068280ED06A2817D195
:1013500004E0742813D07A2812D110E0012040054F
:1013600004430CE00121090501E0032109050C43B8
:101370007178814203D1012000052418761C761C67
:101380003078119066280BD013DC58287DD009DC0A
:1013900000287BD04528F6D04628F4D047281AD11B
:1013A000A5E118E0632835D0642870D0652812D1F3
:1013B0009DE170286CD008DC6728F1D069287BD0CB
:1013C0006E280DD06F2806D1BAE073282ED075286C
:1013D00071D0782859D01A9A199990476D1C7EE1DE
:1013E0006002400F022809D003280DD00428189865
:1013F00001680DD00D60001D189070E11898EA1773
:1014000001680D604A60F6E7189801680D80F2E700
:101410000D70F0E718986A4601781172001D189057
:101420000020507202A80090012005E0189802C820
:10143000189000200091C04361070DD5002101E004
:101440000199491C0191B94212DA8142F8DB009AF4
:10145000515C0029F4D10BE0002101E00199491C05
:1014600001918142FADB019A0099895C0029F5D14A
:10147000019904981A9B471A21463846199A00F098
:1014800097FA0199401945180BE04FE02CE113E061
:101490004EE0009800990078491C00911A9A199919
:1014A00090470198401E0190401CF2D121463846D9
:1014B0001A9B199A10E137E00A200021009001914F
:1014C0006002410F022907D0189A01CA1892C21768
:1014D0009446032908D00AE01898C01DC108C90025
:1014E00005C91891944607E000B2C2179446042932
:1014F00002D140B2C1178C4600226146944506DAFB
:101500000A460021404291418C462D2102E02105EE
:1015100004D52B216A461173012103E0E10701D0B4
:101520002021F7E7029155E00A200AE0102008E0A8
:10153000102000900021042004430191082703E0BB
:1015400008200021019100906002410F022907D07C
:10155000189A01CA189200229446032908D008E07C
:101560001898C01DC108C90005C91891944603E028
:1015700080B2042900D1C0B200210291210729D5EF
:101580001199702906D0009A1021019B4A401A43F4
:1015900005D00EE040216A461173012108E0614642
:1015A000014306D030216A4611731199517302210B
:1015B0000291009A0821019B4A401A430AD16146D0
:1015C000014301D1610705D530216A46117301211C
:1015D0007F1E02911199582904D035A10E910DA9B1
:1015E0000D910DE037A1F9E76146019B009AFEF7E6
:1015F00099FD0E9B8C469B5C0D9A521E0D921370AA
:1016000061460143F0D10D9805A9081A20300190D8
:10161000600703D501200004844300E001270198FE
:10162000874201DD381A00E000200199009041183E
:10163000029809180498401A0490E00306D4214641
:101640001A9B199A049800F0B3F94519002706E08F
:1016500003A81A9AC05D199990476D1C7F1C0298C7
:101660008742F5DBE0030CD521461A9B199A0498B2
:1016700000F09EF9451904E01A9A30201999904714
:101680006D1C0099481E00900029F5DC08E00D98BB
:101690000D990078491C0D911A9A199990476D1C63
:1016A0000199481E01900029F1DC63E1092801003D
:1016B00030313233343536373839616263646566C8
:1016C000000000003031323334353637383941428A
:1016D000434445460000000000F05AF94519761CC5
:1016E0003078002800D0E2E528461BB0F0BD600746
:1016F00000D406271898C01DC108C90048680A68A8
:101700000831C30FDB071891190001D09CA108E034
:10171000210501D59BA104E0E10701D09AA100E0D9
:101720009AA1430011985B08109165280CD006DC43
:10173000452809D046281DD0472841D141E06628D8
:1017400018D067283CD13CE00021112F01DB11208B
:1017500000E0781C0191009008A911A8FFF7E8FCAF
:10176000139905910021119A15927F1C12980197E7
:10177000009150E00120C00703900120019008A9CA
:10178000009711A8FFF7D4FC139A14990592002230
:10179000119B009212981593059A0192002901D08D
:1017A000104602E0791C40180190381A01D50198C2
:1017B00004E04042401E0090781C0190C01B029043
:1017C00043E0012F00DA01270021112F01DD112054
:1017D00000E038460191009008A911A8FFF7A8FC85
:1017E00013990591119A0021129815920091019771
:1017F00021070CD40599B94201DB019900E0019160
:10180000012904DD159A491E515C302906D0B842E1
:1018100001DA011D05DA0121029115E00199491E45
:10182000EDE7002805DC0099411800910199091A9B
:1018300003E0019A411C914200DD01910099401A98
:10184000401C02900120C0070390200706D4029993
:101850000198814202DB0020C043029000206946CB
:10186000C87707AF012103980337C907884224D0FE
:10187000022011902B201290039800280CDA40428D
:1018800003902D20129007E00A210398FEF758FEDE
:1018900030317F1E039039701199481E1190002934
:1018A000F2DC03980028EFD1791E12980870307886
:1018B000202108404530BF1E387006A8C01BC01D3F
:1018C000039010980078002800D001200199411859
:1018D0000298C0170918039809180498401A401E66
:1018E0000490E00306D421461A9B199A049800F04C
:1018F0005FF8451910980078002803D01A9A1999B2
:1019000090476D1CE00324D521461A9B199A049830
:1019100000F04EF845191CE00098002807DB0099FC
:101920000598884203DD1598405C199901E01999E2
:1019300030201A9A904700986D1C401C0090029825
:10194000401E0290002804D11A9A2E20199990471F
:101950006D1C0199481E01900029DDDC05E03878F6
:101960001A9A7F1C199990476D1C0399481E039081
:101970000029F4DC21461A9B199A0498ACE6000071
:101980002D0000002B0000002000000000000000DF
:10199000F8B5044600251E461746880404D405E021
:1019A00039462020B0476D1C641EF9D52846F8BD85
:1019B000FFB50446002581B01E46C80301D5302777
:1019C00000E02027880404D505E038460399B04795
:1019D0006D1C641EF9D5284605B0F0BD0D0A005BEC
:1019E0005258202575425D20000000000C1A0008A6
:1019F000000000200800000012110008141A00085E
:101A000008000020780400002211000800000000F7
:041A100000A24A04E2
:04000005080000E10E
:00000001FF
