:020000040800F2
:1000000020040020E1000008730100086F010008CF
:1000100000000000000000000000000000000000E0
:10002000000000000000000000000000790100084E
:10003000000000000000000075010008C901000870
:100040000D0100080D0100080D0100080D01000858
:100050000D010008550100080D0100080D01000800
:10006000000000000D0100080D0100080D0100084E
:100070000D0100080D0100080D010008000000003E
:100080000D0100080D010008000000000D0100082E
:100090000D0100080D0100080D0100080D01000808
:1000A0000D0100080D0100080D0100080D010008F8
:1000B0000D0100080000000000000000000000002A
:1000C0000D010008000000000D01000803488546EE
:1000D00000F028F800480047A1050008200400208F
:1000E0000B4802680B480240120C92020A4940F287
:1000F000000001C1121F002AFBD1084880470848B0
:100100000047FEE7FEE7FEE7FEE7FEE7FEE700004A
:10011000E0F7FF1F0000FFFF00000020D1010008F2
:10012000CD0000081CB5094800900948019005461B
:100130000126009C05E0E36807CC33430C3C98475C
:100140001034AC42F7D3FFF7C5FF000018090008D0
:100150003809000880B5012000F052F930B1FFE7FE
:10016000012000F045F900F099FBFFE780BDFFE7B3
:10017000FEE77047FFE7FEE7FFE7FEE780B584B0E4
:1001800002900298401E000E18B1FFE70120039074
:1001900011E00298401E0949086000200190C04308
:1001A000032100F0AFF8019805490860054A0721CE
:1001B00011600390FFE7039804B080BD14E000E0F5
:1001C00018E000E010E000E080B500F0FFF880BD2E
:1001D00080B586B042490868012210430860FFE7F5
:1001E0003F4800688007002801D4FFE7F8E73D4852
:1001F00000680C210840082835D1FFE7FFE739499E
:10020000086804900498F022904304900498802297
:10021000104304900498086000200590FFE70598BB
:100220007F2805D8FFE7FFE70598401C0590F6E713
:100230002C49086804900498F02290430490049894
:100240009022104304900498086000200590FFE776
:1002500005987F2805D8FFE7FFE70598401C059023
:10026000F6E7FFE7FFE71F49019108680322904383
:100270000860642000F088F80199194A10681A4B48
:10028000184010600868194A104008600868184A49
:1002900010400860174908680F229043086016490B
:1002A000086840F203129043086008680122029235
:1002B0001304984308600868D307984308600F49FF
:1002C0000868904308600E4900200390086000F021
:1002D000C7FA02980399C00600F08CF906B080BDF9
:1002E0000010024004100240FFFFF2FE0C00FF0865
:1002F000FFFFC2772C100240301002403410024041
:100300000810024070B582B0024601A80270009148
:1003100000214056002816D4FFE7002401A9085701
:100320000322D3431840174A805809578C07E50E1B
:10033000FF24AC40A043009CA401E4B2AC402043A5
:10034000194088501AE001A908780F242040083885
:100350000322D34318400A4A8058002549578D0785
:10036000EE0EFF25B540A843009DAD01EDB2B540AE
:1003700028432140083919408850FFE702B070BD7A
:100380001CED00E000E400E082B00190002000904D
:10039000FFE70098019A0A215143884205D2FFE7FE
:1003A000FFE70098401C0090F3E702B070470000A0
:1003B00081B0009000980C490860FFE70A48006887
:1003C00008B1FFE7FAE701B07047C0460648006889
:1003D00028B1FFE704490868401E0860FFE70349A9
:1003E0000868401C08607047080000200C000020CE
:1003F00081B0009000980C49086001B07047C04679
:1004000082B0019069460020087007480068019991
:10041000084204D0FFE7694601200870FFE76846FC
:10042000007802B07047C0461404014080B584B023
:10043000884800F059F90920C006019001210022E6
:10044000039240F20023029300F01EF80198029BF1
:100450000399032200F05FF80198029900F004F874
:10046000039804B080BDC04682B00190009100980E
:100470000199886202B0704782B0019000910098A3
:100480000199886102B0704787B006900591049287
:1004900003930698006801900698C068009002A92E
:1004A00000200880FFE702A800880F282BD8FFE76C
:1004B00002A801880398C840C007F0B1FFE702A86E
:1004C00001884900032213468B4001999943019109
:1004D000059B018849008B400199194301910188CE
:1004E00049008A4000999143009104990088400096
:1004F0008140009808430090FFE7FFE70298401C06
:1005000002A90880CFE7019806990860009806992B
:10051000C86007B0704710B586B0059004A8017098
:10052000039202930078012806D1FFE7029A059909
:1005300048681043486005E0029A0599486890436E
:100540004860FFE705988068009001A900200880B6
:10055000FFE701A800880F281DD8FFE701A8018840
:100560000298C840C00780B1FFE701A80188490090
:1005700003228A400099914300910399008840002A
:100580008140009808430090FFE7FFE70198401C76
:1005900001A90880DDE700980599886006B010BDC4
:1005A00080B584B00020039000F056F800F05CF9AC
:1005B000FFF73CFF00F030F80920C006029040F23F
:1005C0000021FFF759FF029840F20011FFF754FF96
:1005D000FFE70920C006019040F20021FFF74CFF21
:1005E0000120FFF7E5FE019840F20011FFF744FFFC
:1005F000EFE7000082B00190009101980099044A51
:100600001140084303490860BFF34F8F02B07047A1
:1006100080FFFF1F08ED00E080B584B00D4800F0BA
:1006200063F80920C006019001210022039240F2E4
:1006300000130293FFF728FF0198029B03990322FE
:10064000FFF769FF01980299FFF70EFF039804B0C6
:1006500080BDC046110500007C4908680122104396
:100660000860FFE7794800688007002801D4FFE7A9
:10067000F8E779490868032290430860734A1068D4
:10068000134B184010600868124A10400860086850
:10069000724A10400860104908680F2290430860B1
:1006A0000E49086840F2031290430860086801226E
:1006B0001304984308600868D30798430860084902
:1006C0000868904308600749002008607047C046EA
:1006D000FFFFF2FE0C00FF082C1002403010024019
:1006E000341002400810024081B001466846018083
:1006F00000881F220146114001238B408109534A83
:1007000088581843885001B07047C04687B0002011
:10071000069005904D4908680122120410430860B4
:10072000FFE70698401C06904848006801214904EC
:1007300008400590FFE705990020019039B9FFE7CF
:1007400006984349401A411E88410190FFE70198ED
:10075000C0070028E5D1FFE73C4800688003002877
:1007600002D4FFE7FFE7FEE73A4908680222104398
:100770000522904308603849009108689022104390
:10078000086008680860086808600868334A104014
:10079000086008681D221204104308602B4908688D
:1007A0000122120610430860FFE728480068800114
:1007B000002801D4FFE7F8E7274908680490049867
:1007C000032290430490049802221043049004985A
:1007D0000860FFE7204800680C210840082801D085
:1007E000FFE7F7E7FFE700200390FFE703987F2884
:1007F00005D8FFE7FFE70398401C0390F6E716498A
:10080000086802900298F022904302900298802299
:10081000104302900298086000200390FFE70398BD
:100820007F2805D8FFE7FFE70398401C0390F6E711
:100830000949086802900298F022904302900298B9
:10084000029002980860FFE707B07047001002406E
:10085000FFFF00000020024004100240FFFFC277AB
:1008600080B5FFF753FF80BD80B50848006840F2AF
:10087000E831B0FBF1F0FFF781FC10B1FFE7FFE7D3
:10088000FEE70021C843FFF73DFD80BD00000020CA
:10089000014800687047C0460C00002080B582B057
:1008A000FFF7F6FF01901048006890B1FFE701984C
:1008B0000D490968401A00900098042801D8FFE704
:1008C0000FE0009809490860009840000849086056
:1008D000FFE701980449086006490868401C086061
:1008E000FFE702B080BDC0461C00002018000020B9
:1008F000140000201000002002E008C8121F08C1E8
:10090000002AFAD170477047002001E001C1121F90
:10091000002AFBD1704700003809000800000020C1
:1009200004000000F80800083C0900080800002046
:0C093000180400000809000800A24A0496
:04000005080000E10E
:00000001FF
